:100000001CC02BC02AC029C0BCC327C096C325C0B2
:1000100024C064C322C021C020C01FC01EC01DC098
:100020001CC01BC01AC022C324C326C328C32AC3B2
:100030002CC32EC330C332C334C311241FBECFE53B
:10004000D4E0DEBFCDBF20E0A0E6B0E001C01D924D
:10005000AF3BB207E1F7D5D3AFC4D2CF6F927F9257
:100060008F929F92AF92BF92CF92DF92EF92FF92C8
:100070000F931F93CF93DF93CDB7DEB73B01BA0148
:10008000922E20916400243008F040C0292D40E0D9
:10009000EBD3282D40E0B501C801C9D3E09164003D
:1000A0004FE04E9FF0011124EF57FF4F818692825F
:1000B00071826082F482E38216830583D086C782D0
:1000C00089899A89AB89BC8982879387A487B587F8
:1000D0001686F301508121E030E0C90102C0880F8B
:1000E000991F9A94E2F7809585238083209164007C
:1000F0002F5F2093640030E021503109429FC001FE
:10010000439F900D11248F579F4F02C080E090E0D5
:10011000DF91CF911F910F91FF90EF90DF90CF90E3
:10012000BF90AF909F908F907F906F9008950F93A6
:100130001F93FC0110926000109261001092620007
:1001400010926300A381B4818C9190E0018402C07D
:10015000959587950A94E2F780FF10C08AE18A9509
:10016000F1F700C0A381B4818C9190E0018402C0BA
:10017000959587950A94E2F780FDF0CFA081B18133
:100180004C9121E030E0C901028002C0880F991F24
:100190000A94E2F7842B8C934091600050916100A7
:1001A00060916200709163004F3F8FEF58076807BE
:1001B000710558F5A381B4818C9190E0018402C04F
:1001C000959587950A94E2F780FF0DC01EC0A38124
:1001D000B4818C9190E0018402C0959587950A9432
:1001E000E2F780FD12C04F5F5F4F6F4F7F4F40932C
:1001F00060005093610060936200709363004F3F12
:100200008FEF58076807710511F7A081B1812C9114
:1002100081E090E0028002C0880F991F0A94E2F703
:10022000809582238C938AE18A95F1F700C0A5819D
:10023000B6814C9181E090E09C01018402C0220FC4
:10024000331F0A94E2F7242B2C93A781B0852C91BD
:10025000018402C0880F991F0A94E2F780958223D7
:100260008C938AE18A95F1F700C0A581B6812C9123
:1002700081E090E0018402C0880F991F0A94E2F7A0
:10028000809582238C930285138524853585409142
:1002900060005091610060916200709163004017AE
:1002A00051076207730718F4168680E002C081E0E8
:1002B00086871F910F9108951F93CF93DF938091AD
:1002C0006400882381F0C0E0D0E01FE01C9FC001E3
:1002D00011248F579F4F2BDFD80FCF5F8091640081
:1002E000C817A0F301C0D0E08D2FDF91CF911F91EF
:1002F0000895EDE6F0E080818F5F808380818C330C
:10030000B1F410926D00ECE6F0E080818F5F8083A5
:1003100080818C3361F410926C00EBE6F0E0808118
:100320008F5F80838081883111F410926B00089573
:10033000EDE6F0E020818DEC289F912D112496951B
:1003400096959695990F392F330F330F930F291BDD
:1003500020936A009081989F912D112496959695EF
:10036000969590936900ECE6F0E02081289F912D0E
:100370001124969596959695990F392F330F330F33
:10038000930F291B209368009081989F912D112431
:1003900096959695969590936700EBE6F0E0208110
:1003A000289F912D1124969596959695990F392F02
:1003B000330F330F930F291B209366009081989F72
:1003C000812D1124869586958695809365000895E4
:1003D000ECE6F0E090819F5F89E8989F812D1124E1
:1003E0008295869587702CE3829F901911249083C3
:1003F0000895EDE6F0E090819F5F89E8989F812D58
:1004000011248295869587702CE3829F9019112480
:1004100090830895EBE6F0E090819F5F8BEA989FD0
:10042000812D112482958F7028E1829F90191124CB
:10043000908308958F92AF92BF92CF92DF92EF9206
:10044000FF920F931F9320E041E068E370E087E3A1
:1004500090E0EDD121E041E068E370E087E390E0D7
:10046000E6D122E041E068E370E087E390E0DFD18D
:1004700023E041E068E370E087E390E0D8D11F9289
:100480001F9284E08F938EE78F930F2EF5E08F2ECF
:10049000F02D0F2EF8E3AF2EB12CF02D0F2EF8E338
:1004A000CF2ED12CF02D0F2EF6E3EF2EF12CF02DC8
:1004B00007E310E024E046E350E068E370E087E300
:1004C00090E0CCDD9093BE008093BD000F900F9024
:1004D0000F900F901F910F91FF90EF90DF90CF90B2
:1004E000BF90AF908F9008958F92AF92CF92EF927E
:1004F000FF920F931F938091740090917500009765
:10050000A1F4B09917C052D280E090E0F2D1E0D0CF
:10051000D9D06FDF0DDF84EF91E090937500809369
:10052000740081E08093760005C001979093750078
:100530008093740080917200909173000097A1F4F1
:10054000B19917C033D280E090E0D3D1C1D0BAD0F6
:100550003FDFEEDE84EF91E09093730080937200B2
:1005600081E08093760005C001979093730080939B
:10057000720080917000909171000097A1F4B2997F
:1005800017C014D280E090E0B4D1A2D09BD042DF5B
:10059000CFDE84EF91E0909371008093700081E052
:1005A0008093760005C0019790937100809370004E
:1005B000809176008130E9F080916E0090916F001B
:1005C000009789F479DE882371F184EF91E09093AC
:1005D0006F0080936E0076D01092770078D161E042
:1005E00085E05FD120C0019790936F0080936E00EB
:1005F0001AC0B39918C01F9288248394A12CC12CCF
:10060000E12CF12C08E01DE325E044E060E080E00F
:1006100073D158D0109277005AD161E085E041D172
:10062000109276000F9080E01F910F91FF90EF9055
:10063000CF90AF908F9008958FE781BB8FE384BBFD
:10064000089582B3807882BB85B3807C85BB089592
:1006500025B3207C25BB442339F1462F50E04A3096
:10066000510518F5FA01ED5EFF4F09949FE392BB27
:100670001CC096E092BB19C09BE592BB16C09FE4DC
:1006800092BB13C096E692BB10C09DE692BB0DC014
:100690009DE792BB0AC097E092BB07C09FE792BB61
:1006A00004C09FE692BB01C012BA45B321E030E01E
:1006B000B90102C0660F771F8A95E2F7CB01842B40
:1006C00085BB089585E085BD89B7806489BF08959D
:1006D00015BC89B78F7389BFB4DF08951F920F923D
:1006E0000FB60F9211242F933F934F935F936F9305
:1006F0007F938F939F93AF93BF93EF93FF938091DB
:1007000077008F5F80937700809177008F3F21F48F
:1007100010927700D8D0DCDFFF91EF91BF91AF91BD
:100720009F918F917F916F915F914F913F912F9109
:100730000F900FBE0F901F9018951F920F920FB63B
:100740000F9211242F933F934F935F936F937F9357
:100750008F939F93AF93BF93EF93FF93CADDE8DD31
:10076000FF91EF91BF91AF919F918F917F916F9189
:100770005F914F913F912F910F900FBE0F901F905F
:1007800018951F920F920FB60F9211242F933F933B
:100790004F935F936F937F938F939F93AF93BF9389
:1007A000EF93FF93E0917800F0E0EB59FF4F608109
:1007B0008091780041E04CDF809178008F5F8093DA
:1007C0007800909178008BEA989F812D112486956E
:1007D0008695282F220F820F880F981B9093780000
:1007E000FF91EF91BF91AF919F918F917F916F9109
:1007F0005F914F913F912F910F900FBE0F901F90DF
:1008000018951F9288248394A12CC12CE12CF12CE3
:1008100008E01DE325E044E060E080E06DD08FB7A4
:1008200080688FBF07DE08DF0F905EDEFECFFB0122
:10083000DC013C9161E070E0022E02C0660F771F80
:100840000A94E2F7609536233C93808168236083A5
:10085000808150E0BA0102C0660F771F2A95E2F747
:100860009B01282B20830895FB01DC013C9161E072
:1008700070E0022E02C0660F771F0A94E2F7362B53
:100880003C938081609568236083808150E0BA0149
:1008900002C0660F771F2A95E2F79B01282B208361
:1008A000089593B7987F93BF99B79C7F99BF93B7EB
:1008B000892B83BF89B7862B89BF662319F08FB731
:1008C00080688FBF089583B7887F83BF0895109293
:1008D000790010927A0010927B0010927C001092A6
:1008E0007D0010927E0010927F001092800012BE58
:1008F00008959DBD8CBD08958F92AF92CF92DF92E7
:10090000EF92FF920F931F93CF93DF93CDB7DEB794
:10091000D62E1FBC1EBC9FB530E4839FF00111246E
:10092000E92BEFBD9FB530E1639FF0011124E92B66
:10093000EFBD9FB5342F3370932B9FBD9EB54C7088
:10094000440F492B4EBD1BBD0ABDF9BCE8BC99B78D
:100950003D85330F330F330FC32A880C880CC8280A
:10096000AA0CAC28AA0CAA0CA92AA9BE9EB5292BB0
:100970002EBD882339F021E040E066E370E087E394
:1009800090E072DFDD2039F022E040E066E370E0C5
:1009900087E390E069DFDF91CF911F910F91FF9086
:1009A000EF90DF90CF90AF908F9008951FBC1EBC4A
:0C09B00089B7837C89BF0895F894FFCFBD
:00000001FF
